S01500004430303033455F4C6162332D332E73726563C2
S11300000C942E000C944B000C944B000C94B701F0
S11300100C944B000C944B000C944B000C948D01ED
S11300200C944B000C944B000C944B000C944B0020
S11300300C944B000C944B000C944B000C944B0010
S11300400C944B000C944B000C944B000C944B0000
S11300500C944B000C944B000C944B0011241FBEC9
S1130060CFEFD4E0DEBFCDBF11E0A0E0B1E0E2EB22
S1130070F6E002C005900D92AA31B107D9F723E04A
S1130080AAE1B1E001C01D92A134B207E1F70E94D8
S113009074010C9457030C94000080910001882390
S11300A019F01092000108958091EF00882319F04F
S11300B01092EF0003C081E08093EF0081E0809311
S11300C00001089580EC8093E4008FE08093E700C2
S11300D087EB8093E50087E08093E6000895CF9353
S11300E0DF93CDB7DEB764970FB6F894DEBF0FBECB
S11300F0CDBF94E1E5E0F1E0DE01119601900D92AF
S11301009A95E1F76630710568F5E82FF0E0F0970D
S1130110EE0FFF1FEC0FFD1F21813281FB01F595CE
S1130120E795E451FF4FDB01A170BB2760FF02C0DC
S11301306FE001C060EFAF014C5E5F4F822F8F70A4
S1130140329522952F7023273F702327109711F0A3
S11301508295807F90819623892B808335964E17D4
S11301605F0761F764960FB6F894DEBF0FBECDBF8C
S1130170DF91CF910895CF92DF92EF92FF92CF93C8
S1130180DF936B017C0183E0C816D104E104F10420
S113019074F1D701C60181709927AA27B078BB23CF
S11301A054F40197A109B1098E6F9F6FAF6FBF6FB0
S11301B00196A11DB11D892B8A2B8B2BD1F0C2E096
S11301C0D0E008C0C701B6010E94D502672B682B96
S11301D0692B89F021969E010D2E000C440B550BC2
S11301E02C153D054E055F056CF381E005C081E0EB
S11301F003C080E001C080E0DF91CF91FF90EF90D9
S1130200DF90CF9008958F929F92AF92BF92CF923A
S1130210DF92EF92FF92CF93DF934B015C01EA01EF
S113022024E630E040E050E00E94D5020F2EFAE0D0
S1130230CF2ED12CE12CF12CF02DA70196010E9498
S1130240D502BE0180E3820F0E946F002196C50192
S1130250B401A70196010E94D502862FBE01805DDC
S11302600E946F00DF91CF91FF90EF90DF90CF90CD
S1130270BF90AF909F908F90089560911A017091F4
S11302801B01072E000C880B990B44E050E00E94E0
S113029003010895EC01C12CD12C7601C394C7014C
S11302A0B6010E94BB00882329F0AE01C701B60144
S11302B00E9403018FEFC81AD80AE80AF80AEFCFA0
S11302C080EC809380008DE08093810082E49FE045
S11302D09093890080938800109285001092840086
S11302E082E080936F000895E1E6F0E080E8808387
S11302F010820E9462000E94600160E070E08DE460
S113030090E00E940C0263E070E08DE391E00E94B3
S11303100C0280E090E00E944A011F920F920FB6F7
S11303200F9211242F933F934F935F936F937F9377
S11303308F939F93AF93BF93EF93FF9360E070E02D
S11303408DE490E00E940C020E94B502FF91EF91AF
S1130350BF91AF919F918F917F916F915F914F91D9
S11303603F912F910F900FBE0F901F9018951F92E1
S11303700F920FB60F9211242F933F934F935F93D5
S11303806F937F938F939F93AF93BF93EF93FF9359
S11303901F9911C080911A0190911B0101969093AD
S11303A01B0180931A0164E070E08DE391E00E94E8
S11303B00C020E94B502FF91EF91BF91AF919F9102
S11303C08F917F916F915F914F913F912F910F90FA
S11303D00FBE0F901F901895CF93DF9300D0CDB729
S11303E0DEB79A8389838091010190910201069678
S11303F00E941603892B59F489819A8190930201F2
S11304008093010161E070E006960E9436030F902C
S11304100F90DF91CF910895CF93DF9300D0CDB7A4
S1130420DEB7F89420911C0130911D01232B09F5AE
S11304302AEF31E0309392012093910127E632E0D4
S11304403093FF012093FE0124ED32E030936C02DF
S113045020936B021092D9021092D80220E825B999
S11304602DBB20936C0021E030E030931D012093DC
S11304701C0120910301309104013A832983232B29
S1130480A9F0E981FA814481558150930401409394
S11304900301918380837383628315821482CF0165
S11304A006960E9416030197C1F501C0FFCF789408
S11304B0A0910101B0910201ED91FC911197129666
S11304C08D919C9113970995F894E0910101F09115
S11304D00201158214828091030190910401009716
S11304E029F4F0930401E093030106C09583848307
S11304F0F0930401E093030180911E0190911F0188
S1130500009751F0FC012481358130931F01209321
S11305101E010E94EC0101C0FFCFE981FA813696E9
S113052089819A8187599F4F918B808B938B828B82
S1130530E981FA811582148280911E0190911F0134
S1130540009729F4F0931F01E0931E0108C0E9818C
S1130550FA8195838483F0931F01E0931E017894BC
S11305600F900F90DF91CF91089580911E0190918B
S11305701F010097C9F0FC0124813581E09101013C
S1130580F0910201158214822115310529F4F093AA
S11305901F01E0931E0106C035832483F0931F01DD
S11305A0E0931E010E94EC010895052E97FB1EF4B2
S11305B000940E94EC0257FD07D00E94F40207FC4D
S11305C003D04EF40C94EC0250954095309521954F
S11305D03F4F4F4F5F4F089590958095709561956B
S11305E07F4F8F4F9F4F0895A1E21A2EAA1BBB1B6A
S11305F0FD010DC0AA1FBB1FEE1FFF1FA217B307EB
S1130600E407F50720F0A21BB30BE40BF50B661F00
S1130610771F881F991F1A9469F7609570958095C4
S113062090959B01AC01BD01CF010895DC012D9291
S11306303D924D925D926D927D928D929D92AD927E
S1130640BD92CD92DD92ED92FD920D931D93CD93CB
S1130650DD93FF91EF918DB78D938EB78D938FB707
S11306608D93ED93FD93882799270994DC01CB01A1
S113067081309105811D2D903D904D905D906D9040
S11306807D908D909D90AD90BD90CD90DD90ED903E
S1130690FD900D911D91CD91DD91ED91FD910D9008
S11306A0F894FEBF0FBEEDBFED91FD910994F8944F
S10506B0FFCF76
S11306B20120018D0151151001111E111B500B4116
S10D06C21B411F1101511F510B00D1
S9030000FC
